:020000040800F2
:10000000B1AA010000000000000000000000000094
:10001000000000000000000000000000F20C0008DA
:1000200000000000000000000000000000000000D0
:1000300000000000000000000000000000000000C0
:1000400000000000000000000000000000000000B0
:1000500000000000000000000000000000000000A0
:100060000000000000000000000000000000000090
:100070000000000000000000000000000000000080
:100080000000000000000000000000000000000070
:100090000000000000000000000000000000000060
:1000A00000000000000000001C0C00080000000020
:1000B0000000000000000000000000000000000040
:1000C0000000000000000000000000000000000030
:1000D0000000000000000000000000000000000020
:1000E000440D0008000000000000000000000000B7
:1000F0000000000000000000000000000000000000
:1001000000000000000000000000000000000000EF
:1001100000000000000000000000000000000000DF
:100120000000000000000000960C00080000000025
:1001300000000000000000000000000000000000BF
:1001400000000000000000000000000000000000AF
:100150000000000000000000000000007370043088
:10016000170500001305C5FF8545F605637BB5003F
:1001700089816378B500170500001305C5002E9529
:1001800002859302002073A0027D970200009382F3
:1001900062E773907230971200009382E2CA739004
:1001A000C27E73E0C07E971200009382A2C173905A
:1001B000523097110018938161A71781001813011D
:1001C00061E4171500001305A5F69705001893853F
:1001D00065E3170600181306262663FAC500832276
:1001E000050023A0550011059105E3EAC5FE17059A
:1001F0000018130565249705001893852525637756
:10020000B500232005001105E36DB5FE73F0023241
:1002100017150000130525CE97100000E780E0C9F0
:1002200097100000E780C0D097100000E78040865C
:100230000145814597000000E78000081713000082
:100240006700A3C801A073E00232828073F002321B
:0402500082800000A8
:10028000307800000A50726F6772616D2068617388
:1002900020657869746564207769746820636F6489
:1002A000653A00006E6D690A0000000074726170AA
:1002B0000A000000411106C697100000E780208068
:1002C00097100000E78060821565130505E297101E
:1002D0000000E780208497100000E780608C3715CD
:1002E0000140B7070020054705468545130505C0B1
:1002F00023AAE74297000000E780601C01A097074F
:1003000000F8938727D089CB171500001305A5BEE9
:1003100017130000670063BA8280B707014083A605
:1003200007401347F5FFF98E23A0D74083A6474027
:10033000F98E23A2D74083A68740F98E23A4D74005
:1003400083A6C740F98E23A6D74095CD85466397EF
:10035000D50083A64740C98E23A2D7408547630CAA
:10036000F60239C689476303F6008280B707014069
:1003700003A78740498F23A4E74003A7C740598DAF
:1003800023A6A740828083A60740C98E23A0D7401A
:100390008547E318F6FCB707014083A68740758FB1
:1003A00023A4E74003A7C740598D23A6A740828016
:1003B000B707014083A68740558D23A4A74083A695
:1003C000C740758F23A6E7408280B707014023AA64
:1003D000A7408280B707014023AAA7408280B717B1
:1003E0000240135765003E9714438547B397A70013
:1003F000D58F1CC3828093F5F51F4CC1828093D7A3
:10040000650093F7F73F3E9508413355B5000589E0
:10041000828093F7050193F8F50099C3B3E8C8000B
:100420008147854E3D4E930F800293028004214305
:10043000139627003397FE003318CE00758F1348AC
:10044000F8FF3396C80001CF032F05003378E80189
:1004500033660601638FF5056389550410C185076E
:10046000E39867FC854E3D4E930F80029302800413
:1004700041431397270001173396FE003318EE000F
:10048000758E1348F8FF3397E80001CE032F45001F
:100490003378E80133670701638FF50163895500FD
:1004A00058C18507E39767FC828018C945BF10C90A
:1004B000C5BF58C965B750C9E5B719C20CC9828014
:1004C0004CC9828093F735008A073D473317F70000
:1004D0008D461347F7FF3315F50063EBB600B706FB
:1004E00001409C467D8F98C69C46C98F9CC68280E1
:1004F0009D4763EBB700B7060140DC467D8FD8C649
:10050000DC46C98FDCC68280AD47B706014063E98F
:10051000B7009C4A7D8F98CA9C4AC98F9CCA82802A
:10052000DC4A7D8FD8CADC4AC98FDCCA8280C167A9
:10053000FD1723200500231205001CC52316050006
:1005400023070500828083D7050003D74500137673
:10055000F5BF1CD5B7370140938707C0418B6306B1
:10056000F504FD779387F73FE98FB7060040638E68
:10057000D7021C41B7160040BD9B1CC11C415D8FBA
:1005800018C19C455CD5630DD600184183D7C500C2
:100590001377F7CF18C1184193F70730D98F1CC1D3
:1005A0005C4993E717005CC98280144183D725001A
:1005B0003718004093F6F6F814C1144193F7070674
:1005C000D58F1CC11C415D8F18C19C455CD5E309CA
:1005D00006FD184183D7C500B73601401377F7CF22
:1005E00018C1104193F70730138706C0D18F1CC183
:1005F000E318E5FA83C7E50023A8F6C25C4993E750
:1006000017005CC982801C4193E717001CC18280DF
:100610000CD585476303F60082805C4993E7170099
:100620005CC982804CD582805C45DD8D4CC5828062
:1006300093C5F5FF0CC98280F367043082801703ED
:10064000000067006333411106C622C426C24AC0B7
:100650002A84B2842E8997000000E780C030CA85C2
:10066000228597000000E780A03222852244B24014
:100670000249A68592444101170300006700C33573
:10068000B71702409843B706FFE0B106136717009B
:1006900098C3D8433706F7EA7D16758FD8C39843B9
:1006A000B706F7FEFD16758F98C39843B706FCFF93
:1006B000FD16758F98C3D843B70601DFFD16758FF9
:1006C000D8C323A6070294433707FF00C165F18E04
:1006D00094C398C798439386F5FF371602404D8F11
:1006E00098C311A099C61C42FD161397E700E35B5F
:1006F00007FEB717024098439316E70063D0060A37
:10070000D8433706C4DF7D16D8C3D843B716024096
:10071000D8C3D84313670740D8C3D843718FD8C311
:10072000D84337062920518FD8C3D8573D76718FCB
:10073000D8D7D8574166130616F1518FD8D79843AA
:1007400037060004518F98C39C4213974700E35D1E
:1007500007FE9C423706001037170240D18F9CC21B
:100760001C4393962700E3DD06FE14433706000181
:10077000B7170240D18E14C3984393166700E3DD88
:1007800006FED843B7160240719BD8C3D8431367FF
:100790002700D8C3DC42A18BF5DF828001A07971EC
:1007A00056CAAE8AB705000809469385052822D4A3
:1007B00026D24AD04ECE52CC06D62A8A7144970011
:1007C0000000E780807DBD492549F15405A093F7DD
:1007D000F60F711405469305F1005285A307F10049
:1007E00097000000E780607B630F9402B397890055
:1007F000B3F75701B3D7870093F7F70F9386070333
:1008000013877703E375F9FC9377F70F71140546A7
:100810009305F1005285A307F10097000000E780DF
:10082000C077E31594FCB250225492540259F24915
:10083000624AD24A45618280411122C43744014054
:1008400026C29375F50FAA841305048006C6130407
:10085000048097000000E78040BA9D4522859700FC
:100860000000E78000BA75D9B24022442685924440
:100870004101828001114EC606CE22CC26CA4AC84A
:10088000B28915C22E843389C500A94403450400EA
:10089000050497000000E78060FA8347F4FF638C4B
:1008A0009700E31524FFF24062444E85D24442494A
:1008B000B24905618280354597000000E78000F865
:1008C000E31624FDCDB7B70700089387472803AF89
:1008D000070083AE470003AE870003A3C70083A8C9
:1008E000070103A84701944F03D7C70183C7E70156
:1008F0007971794622D48A852A84094506D67AC038
:1009000076C272C41AC646C842CA36CC231EE1005B
:10091000230FF10097000000E7802068A2850945B9
:1009200097000000E780E0E7B705000805469385DB
:10093000052B094597000000E780206601A03707D6
:1009400000D2230007001205B71700D2A305070045
:100950003E9563F7A70023A00700C107E3EDA7FEBC
:100960008280B71700D285070A053E958547230088
:10097000F5008280370700D2834707000605798992
:1009800093F7170E5D8D2300A7008280B70700D272
:1009900003C70700914705833D8BBA8663F3E700E1
:1009A0009146B71700D28D070A053E95834705008B
:1009B00013F6F60F2147B397D70093F7F70F118F70
:1009C000B3D7D740B395E500CD8F93F7F70F23004A
:1009D000F5008280B70700D203C70700058393772D
:1009E000C70085EFB71600D20A058D06AA9683C701
:1009F000060021463D8B3307E640B3D7E740139509
:100A0000450093F7F70F1375F50FB397E700C98FFC
:100A100093F7F70F2380F600828001458280F32749
:100A2000503093F707FC93E737007390573082807C
:100A3000B7050008411115469385452A054506C6A8
:100A400097000000E7806055054597000000E780AB
:100A5000C0E741119347F5FF22C406C6139747012B
:100A60002A8405C3B705000815469385C52A0545A0
:100A700097000000E7806052228597000000E78021
:100A8000C0E497000000E780E0FAE9BF411106C624
:100A900097000000E78000BF130570059700000075
:100AA000E78020EA97000000E780A0F7B24041010C
:100AB00017F3FFFF670063798280411113052060FF
:100AC00006C697000000E780C091B240371501408C
:100AD000930600100D46914513050580410117034B
:100AE00000006700439341111305306006C697006C
:100AF0000000E780008FB2403715014085460D4663
:100B0000C145130505C04101170300006700A3900C
:100B1000011126CAAA841305507006CE22CC970074
:100B20000000E780008C0A85371400409700000021
:100B3000E78020A08A851305044097000000E78025
:100B4000C0A08D650546130504409385F5A2970066
:100B50000000E78020AC9385F4FFC2051305044034
:100B6000C18197000000E78020AC13050440854553
:100B700097000000E78000AC13050440854597000E
:100B80000000E780A0AA1305044097000000E7805A
:100B9000C0A7F2406244D24405618280411113052E
:100BA000006006C697000000E780A083A1450145CC
:100BB00097000000E7804091094681451305001029
:100BC00097F0FFFFE780A075130500109700000065
:100BD000E780808037150040854513050540970064
:100BE0000000E78020A50D4597000000E78060A584
:100BF000014685451305A00297000000E780E0A4A8
:100C0000014685451305A00497000000E780E0A396
:100C1000B240410117030000670043A2B70700205C
:100C2000938747439443411106C60547638BE60209
:100C30003715014005468545130505C098C3970043
:100C40000000E780C0871305001097F0FFFFE780E2
:100C5000A078B24013050010410117F3FFFF6700B1
:100C600003773715014001468545130505C023A0CC
:100C7000070097000000E78080841305001097F0BC
:100C8000FFFFE7806075B24013050010410117F3C4
:100C9000FFFF6700C37337150040411185451305F9
:100CA000054006C697000000E780C098B7070020FF
:100CB0009387474394430547638FE600B240371557
:100CC000014098C305468545130505C0410117F34A
:100CD000FFFF6700C37EB2403715014023A0070025
:100CE00001468545130505C0410117F3FFFF670065
:100CF000037D39713ECCB707002083A7874306DE0A
:100D000016DC1ADA1ED82AD62ED432D236D03ACEF3
:100D100042CA46C872C676C47AC27EC08297F25072
:100D2000E2525253C2533255A2551256825672475E
:100D3000E2475248C248324EA24E124F824F2161C2
:100D40007300203039713ECCB707002083A7C7431A
:100D500006DE16DC1ADA1ED82AD62ED432D236D0C7
:100D60003ACE42CA46C872C676C47AC27EC082975C
:100D7000F250E2525253C2533255A2551256825685
:100D80007247E2475248C248324EA24E124F824F3B
:100D9000216173002030000000000000000000000E
:100DA0000000000000000000000000000000000043
:100DB0000000000000000000000000000000000033
:100DC0005D7106C012C216C41AC61EC82ACA2ECC2D
:100DD00032CE36D03AD23ED442D646D872DA76DC1B
:100DE0007ADEFEC0F322103496C0F322003096C2A1
:100DF000F322407C96C4732520348A859700000036
:100E0000E78060C586427390123496427390023038
:100E1000A6427390427C82401242A2423243C243B5
:100E20005245E245724682561257A2573258C2586E
:100E3000525EE25E725F864F616173002030000097
:100E4000000000005D7106C012C216C41AC61EC89A
:100E50002ACA2ECC32CE36D03AD23ED442D646D84A
:100E600072DA76DC7ADEFEC073D0E87E7350F97EEB
:100E700073D0B97EF390D07E73700430B642739015
:100E8000427CA64273901234964273902234824080
:100E90001242A2423243C2435245E2457246825652
:100EA0001257A2573258C258525EE25E725F864FA6
:100EB000616173002030AA85814601460145170310
:100EC0000000670043134111814522C406C62A84ED
:100ED00097000000E780401997F7FF179387875521
:100EE00088435C5D91C38297228597000000E7806C
:100EF000C09D411122C49707000093876723170400
:100F000000001304E4221D8C06C626C2098411C801
:100F100093142400F114BE949C407D14F114829724
:100F200065FCB2402244924441018280411122C4B6
:100F30004AC0170400001304441F170900001309D6
:100F4000C91E3309894006C626C2135929406309C0
:100F5000090081441C40850411048297E31C99FE1A
:100F6000170400001304841C170900001309491C0E
:100F700033098940135929406309090081441C4001
:100F8000850411048297E31C99FEB24022449244E6
:100F900002494101828097F7FF1793872749B2865C
:100FA0002E86AA8588431703000067008300AE875A
:100FB000411122C4B2852A8436863E8506C697F73B
:100FC000FF1723A1074897000000E780E08AFD573C
:100FD0006306F500B24022444101828097F7FF1773
:100FE000938747469C43FDD71CC0B2402244410131
:100FF000828097F7FF179387E743984383278714E7
:10100000A1C3D8437D48634DE804131827001DC1D0
:10101000338307012324C30883A8871805463316A2
:10102000E600B3E8C80023A417192324D310894687
:10103000630DD5000507D8C3C2978CC701458280D0
:101040009307C7142324F7146DBF83A6C718050799
:10105000D8C3558E23A6C718C2978CC70145828076
:101060007D558280797197F7FF179387A73C62C4FB
:1010700003AC07004ECE52CC56CA5AC806D622D46C
:1010800026D24AD05EC6AA8A2E8B054AFD5903296C
:101090008C1463040902832449001384F4FF634E13
:1010A00004008A04CA9463060B0283A74410638277
:1010B00067037D14F114E31834FFB25022549254A4
:1010C0000259F249624AD24A424BB24B224C456124
:1010D000828083274900D440FD176380870423A2C0
:1010E0000400E1DA8327891833178A00832B49002B
:1010F000F98F99EB829683274900E39A77F9832742
:101100008C14E38827FB61B78327C91883A544089B
:101110007D8F19E756858296F9BF23228900D1B7C2
:061120002E858296C9BF76
:04112800FE020008BB
:10112C0000000000EC02002054030020BC0300204F
:10113C0000000000000000000000000000000000A3
:10114C000000000000000000000000000000000093
:10115C000000000000000000000000000000000083
:10116C000000000000000000000000000000000073
:10117C000000000000000000000000000000000063
:10118C000000000000000000000000000000000053
:10119C000000000000000000000000000000000043
:1011AC000000000000000000000000000000000033
:1011BC000000000000000000000000000000000023
:1011CC000000000000000000010000000000000012
:1011DC000E33CDAB34126DE6ECDE05000B000000D7
:1011EC0000000000000000000000000000000000F3
:1011FC0000000000000000000000000000000000E3
:10120C0000000000000000000000000000000000D2
:10121C0000000000000000000000000000000000C2
:10154C00000000000000000000000020000000006F
:04155C00000000206B
:040000050800015C92
:00000001FF
